{
    "contractName": "StorageFactory",
    "abi": [
        {
            "inputs": [],
            "name": "createSimpleStorageContract",
            "outputs": [],
            "stateMutability": "nonpayable",
            "type": "function"
        },
        {
            "inputs": [
                {
                    "internalType": "uint256",
                    "name": "_simpleStorageIndex",
                    "type": "uint256"
                }
            ],
            "name": "sfGet",
            "outputs": [
                {
                    "internalType": "uint256",
                    "name": "",
                    "type": "uint256"
                }
            ],
            "stateMutability": "view",
            "type": "function"
        },
        {
            "inputs": [
                {
                    "internalType": "uint256",
                    "name": "_simpleStorageIndex",
                    "type": "uint256"
                },
                {
                    "internalType": "uint256",
                    "name": "_simpleStorageNumber",
                    "type": "uint256"
                }
            ],
            "name": "sfStore",
            "outputs": [],
            "stateMutability": "nonpayable",
            "type": "function"
        },
        {
            "inputs": [
                {
                    "internalType": "uint256",
                    "name": "",
                    "type": "uint256"
                }
            ],
            "name": "simpleStorageArray",
            "outputs": [
                {
                    "internalType": "contract SimpleStorage",
                    "name": "",
                    "type": "address"
                }
            ],
            "stateMutability": "view",
            "type": "function"
        }
    ],
    "bytecode": "608060405234801561001057600080fd5b50610855806100206000396000f3fe608060405234801561001057600080fd5b506004361061004c5760003560e01c80631563700f146100515780631dda65411461006657806364591bf11461006e578063c5f19c201461009e575b600080fd5b61006461005f36600461027b565b6100bf565b005b61006461013d565b61008161007c36600461029d565b6101b8565b6040516001600160a01b0390911681526020015b60405180910390f35b6100b16100ac36600461029d565b6101e2565b604051908152602001610095565b600082815481106100d2576100d26102b6565b600091825260209091200154604051636057361d60e01b8152600481018390526001600160a01b0390911690636057361d90602401600060405180830381600087803b15801561012157600080fd5b505af1158015610135573d6000803e3d6000fd5b505050505050565b600060405161014b9061026e565b604051809103906000f080158015610167573d6000803e3d6000fd5b50600080546001810182559080527f290decd9548b62a8d60345a988386fc84ba6bc95484008f6362f93160ef3e5630180546001600160a01b0319166001600160a01b039290921691909117905550565b600081815481106101c857600080fd5b6000918252602090912001546001600160a01b0316905081565b60008082815481106101f6576101f66102b6565b6000918252602091829020015460408051632e64cec160e01b815290516001600160a01b0390921692632e64cec1926004808401938290030181865afa158015610244573d6000803e3d6000fd5b505050506040513d601f19601f8201168201806040525081019061026891906102cc565b92915050565b61053a806102e683390190565b6000806040838503121561028e57600080fd5b50508035926020909101359150565b6000602082840312156102af57600080fd5b5035919050565b634e487b7160e01b600052603260045260246000fd5b6000602082840312156102de57600080fd5b505191905056fe608060405234801561001057600080fd5b5061051a806100206000396000f3fe608060405234801561001057600080fd5b50600436106100575760003560e01c80632e64cec11461005c5780636057361d146100735780636f760f41146100885780638bab8dd51461009b5780639e7a13ad146100c6575b600080fd5b6000545b6040519081526020015b60405180910390f35b6100866100813660046102e6565b600055565b005b6100866100963660046103a2565b6100e7565b6100606100a93660046103e7565b805160208183018101805160028252928201919093012091525481565b6100d96100d43660046102e6565b610195565b60405161006a929190610454565b604080518082019091528181526020808201848152600180548082018255600091909152835160029091027fb10e2d527612073b26eecdfd717e6a320cf44b4afac2b0732d9fcbe2b7fa0cf6810191825591518051919361016d937fb10e2d527612073b26eecdfd717e6a320cf44b4afac2b0732d9fcbe2b7fa0cf7019291019061024d565b50505080600283604051610181919061048e565b908152604051908190036020019020555050565b600181815481106101a557600080fd5b600091825260209091206002909102018054600182018054919350906101ca906104aa565b80601f01602080910402602001604051908101604052809291908181526020018280546101f6906104aa565b80156102435780601f1061021857610100808354040283529160200191610243565b820191906000526020600020905b81548152906001019060200180831161022657829003601f168201915b5050505050905082565b828054610259906104aa565b90600052602060002090601f01602090048101928261027b57600085556102c1565b82601f1061029457805160ff19168380011785556102c1565b828001600101855582156102c1579182015b828111156102c15782518255916020019190600101906102a6565b506102cd9291506102d1565b5090565b5b808211156102cd57600081556001016102d2565b6000602082840312156102f857600080fd5b5035919050565b634e487b7160e01b600052604160045260246000fd5b600082601f83011261032657600080fd5b813567ffffffffffffffff80821115610341576103416102ff565b604051601f8301601f19908116603f01168101908282118183101715610369576103696102ff565b8160405283815286602085880101111561038257600080fd5b836020870160208301376000602085830101528094505050505092915050565b600080604083850312156103b557600080fd5b823567ffffffffffffffff8111156103cc57600080fd5b6103d885828601610315565b95602094909401359450505050565b6000602082840312156103f957600080fd5b813567ffffffffffffffff81111561041057600080fd5b61041c84828501610315565b949350505050565b60005b8381101561043f578181015183820152602001610427565b8381111561044e576000848401525b50505050565b8281526040602082015260008251806040840152610479816060850160208701610424565b601f01601f1916919091016060019392505050565b600082516104a0818460208701610424565b9190910192915050565b600181811c908216806104be57607f821691505b6020821081036104de57634e487b7160e01b600052602260045260246000fd5b5091905056fea264697066735822122099f021a0a61aef2c2cedeb0ee56927f46ba0403146348e6efd5597dbdb8edf9164736f6c634300080e0033a26469706673582212201eeac03fa4d528b7193f689bd8630a6da7b4899fabbeceff884326a5e122186264736f6c634300080e0033",
    "sourcePath": "/home/lordrambock/BlockChain/Solidity/solidty-Workspace/Contracts/Factory.sol",
    "compiler": {
        "name": "solc",
        "version": "0.8.14+commit.80d49f37"
    },
    "functionHashes": {
        "createSimpleStorageContract()": "1dda6541",
        "sfGet(uint256)": "c5f19c20",
        "sfStore(uint256,uint256)": "1563700f",
        "simpleStorageArray(uint256)": "64591bf1"
    },
    "gasEstimates": {
        "creation": {
            "codeDepositCost": "426600",
            "executionCost": "461",
            "totalCost": "427061"
        },
        "external": {
            "createSimpleStorageContract()": "infinite",
            "sfGet(uint256)": "infinite",
            "sfStore(uint256,uint256)": "infinite",
            "simpleStorageArray(uint256)": "4625"
        }
    }
}